:100000000202B50202A98D191202248F1AAF191229
:090010000224AD07AF1A02001E24
:10001B000202848F1C8D1D220201F5E709F608DF11
:10002B00FA8046E709F208DFFA803E88828C83E784
:10003B0009F0A3DFFA8032E309F608DFFA8078E3F0
:10004B0009F208DFFA807088828C83E309F0A3DF62
:10005B00FA806489828A83E0A3F608DFFA805889E4
:10006B00828A83E0A3F208DFFA804C80D280FA8088
:10007B00C680D4806980F28033801080A680EA80AD
:10008B009A80A880DA80E280CA803389828A83ECE6
:10009B00FAE493A3C8C582C8CCC583CCF0A3C8C56A
:1000AB0082C8CCC583CCDFE9DEE7800D89828A83E9
:1000BB00E493A3F608DFF9ECFAA9F0EDFB228982B1
:1000CB008A83ECFAE0A3C8C582C8CCC583CCF0A365
:1000DB00C8C582C8CCC583CCDFEADEE880DB898269
:1000EB008A83E493A3F208DFF980CC88F0EF6001F8
:1000FB000E4E60C388F0ED2402B4040050B9F582B3
:10010B00EB2402B4040050AF2323458223900076E6
:10011B007378097C007D007BFF7A03797F7E007FFB
:10012B00101200F6120268E4F5087D307F301200E1
:10013B000630005BE51E540F24FE601E1460341461
:10014B00603B240370440508E508C4540F9002EE8D
:10015B0093FFE508540F93FD8014E51EC4540F2440
:10016B0009F8E6C395085002A6087D307F301200CF
:10017B00068017AF081202C1E4F508800DE51EC416
:10018B00540F2409F8E6FF1202C1E4F51EC200E584
:10019B0008709E1201A38099E4FC20004775F010B3
:1001AB00E51BA42CF582E435F0F583E58224FFF5FD
:1001BB0082E5833402F583E493FF75F010E51BA40D
:1001CB002CF582E435F0F583E582243FF582E58357
:1001DB003403F583E493FD12001E12029DEC0454CC
:1001EB000FFC80B6E4FDFF02001EC0E0C0D03099CA
:1001FB0008C299C2B4D201801B85991E309D0CE5B3
:10020B001EB40207751E00C29D8007209D04D200FC
:10021B00D29DC298D0D0D0E032EFC394304006EFDD
:10022B00D3945A40037F0022EFC39441EF400690D2
:10023B00028993FF229002B493FF22C200E4F51EC1
:10024B00C2B47598F075C83075CBFF75CDFF75CA04
:10025B00DC75CCDCD2ACD2CAC299D2BC22E4F51B81
:10026B00F51CF51DD2A8D2ABD2ACD2BCD288438937
:10027B0020D28E120246D2AF22C0E0C083C0829041
:10028B00FE00E51CF090FD00E51DF0D082D083D080
:10029B00E0327FF07E4F200004DEFBDFF722C0E070
:1002AB00E51B045403F51BD0E032787FE4F6D8FD50
:1002BB0075812002011CD2B4C299C29B8F992277FF
:1002CB007C395E79716F76301E763815543F7367C3
:1002DB00506D783E2A1C766E5B3F065B4F666D7DDC
:1002EB00077F6F303132333435363738394142433B
:1002FB0044454600635C0000635C0000635C0000E7
:10030B00635C00006160400000000000004050583A
:10031B001C0E072330794F0600000000000001235C
:10032B0062541C08393129193839393939312919AD
:10033B003839393900005C6300005C6300005C6392
:10034B0000005C63004042432331381C4C444000A6
:10035B0000000000000000000030794F0600012370
:10036B0062541C08070F0F0F0F0E0D0B4353535303
:10037B005352511300000000000000000000000069
:04038B00000000006E
:00000001FF
