:0600000002000E020405DF
:0F000B00020376787FE4F6D8FD7581200201C0EC
:03001B00020334A9
:100023000203B4EF120243009A8000A38100AC8262
:1000330000B58300BD8400C58500CD8600D587004B
:10004300DD8800E58900ED8A00F58B00FD90010550
:1000530091010D92011593011DA00125A1012DA26E
:100063000135A3013ED00146D1014ED20156D30141
:100073005ED40166D5016ED60176D7017EE0018696
:10008300E1018EE20196E3019EE401A6E501AEE6FD
:1000930001B6E7000001BF7BFF7A04791D02013B33
:1000A3007BFF7A04792D02013B7BFF7A04793D02C1
:1000B300013B7BFF7A04794D807E7BFF7A04795D77
:1000C30080767BFF7A04796D806E7BFF7A04797D7D
:1000D30080667BFF7A04798D805E7BFF7A04799D4D
:1000E30080567BFF7A0479AD804E7BFF7A0479BD1D
:1000F30080467BFF7A0479CD803E7BFF7A0479DDED
:1001030080367BFF7A0479ED802E7BFF7A0479FDBC
:1001130080267BFF7A05790D801E7BFF7A05791D8A
:1001230080167BFF7A05792D800E7BFF7A05793D5A
:1001330080067BFF7A05794D0202AE7BFF7A057953
:100143005D80767BFF7A057965806E7BFF7A057922
:100153006D80667BFF7A057975805E7BFF7A057912
:100163007D80567BFF7A057985804E7BFF7A057902
:100173008D80467BFF7A057995803E7BFF7A0579F2
:100183009D80367BFF7A0579A5802E7BFF7A0579E2
:10019300AD80267BFF7A0579B5801E7BFF7A0579D2
:1001A300BD80167BFF7A0579C5800E7BFF7A0579C2
:1001B300CD80067BFF7A0579D51202F122120269FE
:1001C300A20272004003E4F50CE5087002F50A3060
:1001D30003EEE51130E70BFF120026E4F511C2032D
:1001E30080DEE511540F24FE601404701FE511C472
:1001F300540F75F024A4F50CD200D202800EE51141
:10020300C4540F75F024A4F50A750802E4F511C26D
:100213000380ADBB010CE58229F582E5833AF583C2
:10022300E0225006E92582F8E622BBFE06E9258294
:10023300F8E222E58229F582E5833AF583E4932205
:10024300D083D082F8E4937012740193700DA3A34A
:1002530093F8740193F5828883E47374029368605E
:10026300EFA3A3A380DFD2A8C2AAD2A9D2ABD2ADF7
:10027300D289D28BD288D28A758900438911C28EE2
:10028300C28C758CFF758AF0758DFF758BF0120328
:10029300E3C2A5C2A1C2A6C2A5E4F509F50BF50CFC
:1002A300F50AC201D28CD28ED2AF228B0D8A0E896F
:1002B3000FE4F510AB0DAA0EA90F8510827583000C
:1002C300120216FF120414C2043004FDC204C20356
:1002D3003003FDC2030510E510C3940F40D6AB0DE8
:1002E300AA0EA90F90000F120216FF0204148B0D21
:1002F3008A0E890FE4F510AB0DAA0EA90F851082A3
:10030300758300120216FF120414C2043004FDC2E6
:1003130004C2033003FDC2030510E510C394074074
:10032300D6AB0DAA0EA90F90000F120216FF0204FE
:1003330014C0E0C0D0C28E050BE50A7006C2A6C287
:10034300A5801BE50BD3950A500B300104D2A58081
:100353000DD2A68009300104C2A58002C2A6E50B16
:10036300B4FF03750B00758DFF758BF0D28ED0D063
:10037300D0E032C0E0C0D0C28C0509E50C7006C2E3
:10038300A2C2A18017E509D3950C500C300002D20C
:10039300A1300208D2A28004C2A1C2A2E509B4FF1F
:1003A30003750900758CFF758AF0D28CD0D0D0E02C
:1003B30032C0E0C0D0309908C299C2B4D204801BC5
:1003C300859911309D0CE511B40307751100C29D89
:1003D3008007209D04D203D29DC298D0D0D0E032B2
:1003E300C203E4F511C2B47598F075C83075CBFF3C
:1003F30075CDFF75CADC75CCDCD2ACD2CAC299D23A
:10040300BC22C0E0C200C202E50860021508D0E0C9
:1004130032D2B4C299C29B8F99222020202020205F
:1004230020202020202020202020202020202020C9
:1004330020202020202020202020202020202020B9
:1004430020202020202020202020202020202020A9
:100453002020202020202020202047616D6520734C
:10046300656C656374202020202020312E41737435
:1004730065726F69642042656C7420322E45617227
:10048300746820446566656E736520505245535306
:10049300203020544F2052554E2020202047414DDC
:1004A3004520204F56455220202020202020205335
:1004B300434F52453A2020202020204849474853A3
:1004C300434F52453A202020202020202020505204
:1004D3004553532035202020202020202020202079
:1004E3000220022020202020202020202020202045
:1004F3002020202020200203202001002020202073
:100503002020020220202020202020202020202024
:10051300020303202020022020202020202020204E
:100523002020202020202020202000202020202DDB
:10053300020304202020202020202020202020200F
:1005430020050602202020202020202020202020FB
:100553002020202020202020202000101E1F1E10DD
:1005630000000000010301000000000C1E1F1F0C0F
:1005730000000E1E0C011E1F0F00150E1B151B0E77
:100583001500000000000000000000000000000053
:10059300000000000000000000000000181F180009
:1005A3000000000E0A1F1F000000040E0E150E0EA1
:1005B30004000000070F1F1F1F0000001C1E1F1F49
:1005C3001F001F1F1F0F070000001F1F1F1E1C00FF
:0A05D3000000150E1B151B0E15008D
:00000001FF
