:10000000020305AA07AE03AF05AD0612097EAF02D3
:100010000208DE02001EC2023002FDC20222D20825
:0100200032AD
:10002300020A80751001750C083004067510FF75FF
:100033000C07E4F50DE50DC454F0250CF50EE4F5BD
:100043000FE50E25102422F8E6FF64016006EF6039
:10005300030200D97422250EF8E6FF64026004E56A
:100063000F701DE50F700EE50DC31304C454F02586
:100073000C242280047422250EF87607C207804DD3
:10008300EF642D70387422250EF876077D017F0208
:10009300120A44300810C37411950FC454F044027B
:1000A300FD7F03120A44300810C37411950FC45422
:1000B300F04401FD7F03120A4415128010E50E255A
:1000C300102422F8E6FF7422250EF8A607E50E2574
:1000D300102422F87620E510250EF50E050FE50F06
:1000E300C394075003020044050DE50DC394045067
:1000F30003020038227510FF750C0F3004067510CB
:1001030001E4F50CE4F50DE50DC454F0250CF50EF2
:10011300E4F50F7422250EF8E6B407077422250EC2
:10012300F87620E50E25102422F8E6642D7068E5A4
:100133000F70077422250EF876207422250EF8E638
:100143006004640170387422250EF876077D017F00
:1001530002120A44300810C37407950FC454F044C4
:1001630002FD7F03120A44300810C37407950FC4BD
:1001730054F04401FD7F03120A4415128010E50E6A
:1001830025102422F8E6FF7422250EF8A607E50EB3
:1001930025102422F87620E510250EF50E050FE52F
:1001A3000FC394085003020116050DE50DC3940413
:1001B300500302010A228F09C204C2057D017F0395
:1001C30012079D1209F4E509C454F04403FD7F02AC
:1001D300120A44120016E51375F064842430FF7B81
:1001E3000D7D02120003E51375F00A842430FF7BB2
:1001F3000E7D02120003E51375F00A84E5F0243046
:10020300FF7B0F7D02120003E509C454F04404FD93
:100213007F02120A44120016E51375F06484243039
:10022300FF7B0D7D03120003E51375F00A84243070
:10023300FF7B0E7D03120003E51375F00A84E5F0DE
:100243002430FF7B0F7D03120003E4F513E51364F1
:1002530035600C7D017F01120A4412001680EE22E4
:10026300120A2B120493E4F5081209A97F3C7E00BD
:1002730012069F750880E50830E711D204C205E431
:10028300FD7F0312079D1209F453087F7B017D0351
:100293007F201200037B017D027F20120003E5080B
:1002A300540F7B0160047D0380027D027F3E1200B8
:1002B300037D017F01120A44120016E51324D06066
:1002C3001524F8600924067033530880802E5308E0
:1002D300804308018026E508540F14600A04701156
:1002E3001205057D0280051203917D127F02120A19
:1002F30044E508540FFF1201B9750880E4F51302B1
:100303000279787FE4F6D8FD75816202034C02021C
:1003130063E493A3F8E493A34003F68001F208DFB8
:10032300F48029E493A3F85407240CC8C333C454BA
:100333000F4420C8834004F456800146F6DFE4806E
:100343000B01020408102040809007E9E47E01932A
:1003530060BCA3FF543F30E509541FFEE493A36040
:10036300010ECF54C025E060A840B8E493A3FAE49B
:1003730093A3F8E493A3C8C582C8CAC583CAF0A3EC
:10038300C8C582C8CAC583CADFE9DEE780BE751265
:1003930008E4F50A750B087D047F0312082EC204D6
:1003A300D2057D047F0312079D1209F4D20730079B
:1003B300627D017F01120A441200168513097F0A28
:1003C3007E0012069FAF091205DDAF09120417E57F
:1003D3000A850BF084E5F0701CC2041200F8D20405
:1003E3001200F8C204120026D2041200261205736A
:1003F300E4F50A80077F017E0012069FE512700C68
:10040300E50BD394034005150B751208050A120971
:10041300F4809B22BF3408750C05750E01800BEF29
:100423006436706B750C0A750EFFE4F50DE50DC4AB
:1004330054F0250C250E2422F8E664027048E50DDD
:10044300C454F0250C2422F8E660046401702BE503
:100453000DC454F0250C2422F876077D017F021287
:100463000A443008077D727F03120A443008077D6F
:10047300717F03120A441512800CE50DC454F02554
:100483000C2422F8762D050DE50DC39404409E221D
:100493007F057E0012069F75A083D2A67F017E0092
:1004A30012069FC2A67F027E0012069FD2A67F017C
:1004B3007E0012069FC2A67F017E0012069FD2A66F
:1004C3007F017E0012069FC2A67F017E0012069F57
:1004D300C2A0D2A67F017E0012069FC2A67F017E24
:1004E3000012069F7F281208A67F011208A67F0824
:1004F3001208A67F0C1208A67F061208A67F010227
:1005030008A6E4F50A751110750B067D027F031228
:10051300082EC204D2057D027F0312079D1209F43F
:10052300D20630064A7D017F01120A441200168565
:1005330013097F0A7E0012069FAF09120A5AE50AC1
:10054300B50B0E12063F12074F12086BE4F50A8033
:10055300077F047E0012069FE511700CE50BC39420
:10056300014005150B751110050A1209F480B32219
:10057300E4F50CAF8B120A128F0DE50CC454F02472
:1005830031F87620E50D75F00B84E5F07F207002DD
:100593007F01E50CC454F02431F8A607050CE50CE3
:1005A300C3940440CEE4F50CAF8B120A128F0DE511
:1005B3000CC454F02422F87620E50D75F00D84E583
:1005C300F07F207001FFE50CC454F02422F8A60745
:1005D300050CE50CC3940440CF22EF24CD60132413
:1005E300FC601624FE601C24087050E4F9750D01AC
:1005F300800CE4F9750D01800F7903750DFF750CFF
:100603000680087903750DFF750C09E4FFE50D29D4
:10061300FDC454F0250C2422F8E6B40216EDC454AC
:10062300F0250C2422F87620E9C454F0250C24226A
:10063300F87602E50D29F90FBF03D222E4FFEFC4D8
:1006430054F02423F8E6FE7019EFC454F02424F880
:10065300E664206028EFC454F02423F87604C2062D
:10066300801BEFC454F02422F8A606EFC454F024F0
:1006730024F8E6FEEFC454F02423F8A6067E02EF26
:10068300C454F02E2423F8E6FDEFC454F02E2422A4
:10069300F8A6050EBE0FE80FBF04A322AB07AA06F8
:1006A300C28CC3EB943CEA9400501DEB7802C33335
:1006B300CE33CED8F9FFC374FF9FF58AF58CD28C65
:1006C300308DFDC28DC28C227C007D3CAF03AE0217
:1006D3001206FAAA06AB07D3EB9400EA940040167D
:1006E300758A00758C00D28C308DFDC28DC28CEB67
:1006F3001B70E41A80E122BC000BBE0029EF8DF0D1
:1007030084FFADF022E4CCF875F008EF2FFFEE3351
:10071300FEEC33FCEE9DEC984005FCEE9DFE0FD500
:10072300F0E9E4CEFD22EDF8F5F0EE8420D21CFED4
:10073300ADF075F008EF2FFFED33FD40079850063D
:10074300D5F0F222C398FD0FD5F0EA22E523700617
:10075300E53364207026E533700AE523B4201DE5F4
:1007630043B42018E543700AE533B4200FE553B4CE
:10077300200AE5537023E5436420601D7D017F0259
:10078300120A443008077D727F03120A44300807B7
:100793007D717F03120A441511228F0CA204E433E6
:1007A30025E025E0FFED33333354F844804FF50E55
:1007B300E4F50D30050FE50D1313543F04FB7D04E1
:1007C3007F23120003E50DC4540F250EFDAF0C1259
:1007D3000A441200167422250DF8A613050DE50D23
:1007E300C3944040CE2220412220202020202020DC
:1007F30020202020202020202020202020202020F6
:1008030020202020202020202020202020202020E5
:1008130020202020202020202020202020202020D5
:1008230020202020202020202000008F0CED3333B7
:100833003354F844C0F50EE4F50DE50D13131354CA
:100843001F250EFDAF0C120A44120016E50D5407C6
:10085300FDE50D131313541FFBAF13120A6D050DA2
:10086300E50DC3944040D322E4F50CAF8B120A127A
:10087300E50CC454F02431F87620EF75F00584E5D7
:10088300F0700AEF7F0320E0027F0280027F20E501
:100893000CC454F02431F8A607050CE50CC39404EA
:1008A30040C922C2A4C2A5EFC4540F53A0F042A072
:1008B300D2A6C2A6EF540F53A0F042A0D2A6C2A65E
:1008C30043A00FD2A5C2A4D20030000ED2A6A2A389
:1008D3009200C2A6D2A6C2A680EF22D2A4C2A5EFDE
:1008E300C4540F53A0F042A0D2A6C2A6EF540F5394
:1008F300A0F042A0D2A6C2A643A00FD2A5C2A4D202
:100903000130010ED2A6A2A39201C2A6D2A6C2A60C
:1009130080EF22E4FFEFC454F02433F8E67024EFB1
:10092300C454F02433F87620EFC454F02432F8761C
:1009330020EFC454F02423F8E4F6EFC454F0242247
:10094300F876010FBF03CE227F03EFC454F02413C4
:10095300F8E67024EFC454F02413F87620EFC4545F
:10096300F02412F87620EFC454F02423F8E4F6EFD1
:10097300C454F02422F87601DFD022AC07BC01076F
:10098300ED247FFF1208A6BC0207ED24BFFF120867
:10099300A6BC0307ED248FFF1208A6BC0407ED24B1
:1009A300CFFF1208A622E4F509E509C4540F04FF9A
:1009B300E509540F04FD12097EE509900A9A93FF95
:1009C3001208DE0509E509C3944040DD22C202C2D4
:1009D30003E4F513C2B47598D075C83075CBFF75B1
:1009E300CDFF75CADC75CCDCD2ACD2CAC299D2BCFD
:1009F30022E4FBEBC4540F04FFEB540F04FD120974
:100A03007E74222BF8E6FF1208DE0BBB40E522EFD3
:100A1300C43354E06207EFF5F0A475F029A4243D34
:100A23008FF0A424716FFF22D208D2AAD28A4389FD
:100A330001438920E4F58DD28EC2AB1209D0D2AF27
:100A430022D2B4C299D29B8F99120A92D2B4C2997C
:100A5300C29B8D99020A928F0CE50CB432030209F2
:100A630016E50CB4380312094B22AC07EB75F008FA
:100A7300A42D4440FF1208A6AF040208DE309907F4
:100A8300D203C299C2B432D202859913C29832C238
:100A9300033003FDC203223D3D3D3D3D3D3D3D3D14
:100AA3003D3D3D3D3D3D3D20202020424F592047C7
:100AB300414D45202020203D3D3D3D3D3D3D3D3DBB
:100AC3003D3D3D3D3D3D3D20532E4F4C452057413F
:070AD30054203230323520BF
:00000001FF
